:100000000C942A000C9434000C9434000C943400AA
:100010000C9434000C9434000C9434000C94340090
:100020000C9434000C9434000C9434000C94340080
:100030000C9434000C9434000C9434000C94340070
:100040000C9434000C9434000C9434000C94340060
:100050000C94340011241FBECFE5D8E0DEBFCDBF25
:100060000E9475000C9497000C94000010BC83E370
:1000700089B98AB188618AB980B5866880BD0895DA
:100080005D9BFECF8CB90895CF93DF93EC018881FF
:10009000882331F021960E94400089918111FBCF85
:1000A000DF91CF9108952BB14CB14A30B9F070E097
:1000B0006150710916161706A4F4E82FF92F31962E
:1000C000DF0111974C932E2F281B9BB14CB14A3066
:1000D00051F030E02617370794F305C0E82FF92FC9
:1000E00002C0E82FF92F10820895CF93DF93CDB788
:1000F000DEB7AC970FB6F894DEBF0FBECDBF0E943F
:10010000360084E589A795E49AA793E59BA78CA779
:1001100083E690E00E944000CE0189960E94440050
:1001200068E270E0CE0101960E945300F1CFF8948E
:02013000FFCFFF
:00000001FF
